:042DA9002A002000DC
:1022D40051031A547559612026204C43454441202A
:1022E4002020200051032B48756D69747572652098
:1022F400436F6E74726F6C0044033C4B313A00447C
:1023040003404B323A0042034A2D00420310780046
:1023140042030E00FA42030700FA42031800FA418E
:07232400030600C100C10126
:101F720090034F7401F0E490034EF07B017A0379F1
:101F82004EFF120C0A90034F7433F0E490034EF0AC
:101F92007B017A03794E7F01120C0A90034F74CCB5
:101FA200F090034E7403F07B017A03794E7F0112A5
:101FB2000C0AC292C296C297C29390034F74F0F079
:101FC200E490034EF07B017A03794E7F03120C0AF0
:101FD20090034F7403F0E490034EF07B017A03798F
:101FE2004E7F03120C0A90034F7410F090034E744C
:0F1FF20003F07B017A03794E7F05120C0AC2CCF3
:0120010022BC
:102B92009003507401F090034FF0E4900352F090D0
:102BA2000351F090034E7410F0E4900359F07B014E
:072BB2007A03794E0216E9D7
:1026A20090034E7440F0A37402F0A312076300017A
:1026B200C2009003557401F0E4A3F0A304F0E4A374
:1026C200F0A3F07B017A03794E7F011207F09003A9
:1026D2004E7440F09003501207630001C200900351
:1026E200557401F0900357F0E4A3F0A3F07B017A54
:0826F20003794E7F020207F09C
:10199C007F647E00122C597F327E00122CFF121FA6
:1019AC0072122B921226A2122411122AEE122B6AF8
:1019BC00D2AFD297E4FDFF122B197B017A03791A6F
:1019CC00122A3DE4FD7F01122B197B017A03792B3E
:1019DC00122A3D7F02122CC01200BB120E81122D56
:1019EC00A3EF14601314601B14601C14602F2404E8
:1019FC00702DB2967F018004B2967F327E00122C3D
:101A0C0059801CC2968018D2967F327E00122C59B7
:101A1C00C2967F057E00122C59D2968002D2961265
:101A2C0017EF1229A390037FE0FEA3E0FF122649D3
:101A3C0090037DE0FEA3E0FF1225EF1218C7121AE7
:061A4C0052121E498095B4
:10264900AB07AA067C007D641205937C007D0A1203
:102659000593ED2430900312F07C007D0AAF03AEA0
:10266900021205937C007D0A120593ED2430A3F034
:10267900A3742EF0AE02AF037C007D0A120593ED20
:102689002430A3F0A37443F0E4A3F0FDFF122B1947
:092699007B017A037912022A3D4B
:1025EF00AB07AA067C007D641205937C007D0A125E
:1025FF000593ED2430900344F07C007D0AAF03AEC9
:10260F00021205937C007D0A120593ED2430A3F08E
:10261F00A3742EF0AE02AF037C007D0A120593ED7A
:10262F002430A3F0A37425F0E4A3F0FD7F01122B57
:0A263F00197B017A037944022A3D59
:1027F000AB07AA067C007D64120593EF243090039A
:1028000009F07C007D64AF03AE021205937E007F69
:102810000ACFCDCFCECCCE120593EF2430A3F0A3B8
:10282000742EF0AE02AF037C007D0A120593ED24F6
:0728300030A3F0E4A3F02245
:1018C70090030EE0FEA3E0FF1227F07D06E4FF126F
:1018D7002B197B017A037909122A3D900307E0FE51
:1018E700A3E0FF1227F07D067F01122B197B017AF7
:1018F700037909122A3D900306E0701F7D0AFF1243
:101907002B197BFF7A2D79A9122A3D7D0A7F0112B7
:101917002B197BFF7A2D79AB122A3D900306E064E1
:1019270001701F7D0AFF122B197BFF7A2D79AB12ED
:101937002A3D7D0A7F01122B197BFF7A2D79A91287
:101947002A3D7D0CE4FF122B197B017A03793C12A7
:101957002A3D7D0FE4FF122B197B012093067A03A2
:10196700791080047A03794A122A3D7D0C7F01128F
:101977002B197B017A037940122A3D7D0F7F0112D3
:101987002B197B0120CC067A03791080047A03791E
:051997004A122A3D2266
:101A520020B4167F01122CC020B40E7F01122CC0BC
:101A620020B406122D2930B4FD20B6197F057E0060
:101A7200122C5920B606900306E004F0900306E00B
:101A820064027001F0900306E0703520B7177F05FD
:101A9200FE122C5920B70E90030FE0240AF0900397
:101AA2000EE03400F020B5187F057E00122C59207C
:101AB200B50E90030FE024F6F090030EE034FFF031
:101AC200900306E06401703520B7177F05FE122CE3
:101AD2005920B70E900308E0240AF0900307E0347F
:101AE20000F020B5187F057E00122C5920B50E900B
:0E1AF2000308E024F6F0900307E034FFF02232
:101E4900900307E0FEA3E0FF90030EE0FCA3E0FD92
:101E5900B50708ECB50604C293C200D3ED9FEC9E0A
:101E6900403290030EE0FEA3E0FF90037FE0FCA365
:101E7900E0FD9FEC9E4007200004D293D20090031E
:101E890007E0FEA3E0FFD3ED9FEC9E50073000046E
:101E9900C293C200900307E0FEA3E0FF90030EE0A7
:101EA900FCA3E0FDC39FEC9E502B90037FE0FEA3B3
:101EB900E0FFC39DEE9C5007200004D293D200900E
:101EC9000307E0FCA3E0FDD3EF9DEE9C4007300043
:061ED90004C293C20022C6
:102C59007D367C07ED1D70011C144C70F7EF1F7059
:062C6900011E144E70EA8A
:012C6F002242
:0D2CFF007D06DDFEEF1F70011E144E70F308
:012D0C0022A4
:102CC00000007E7A7DC17C80DCFEDDFCDEFADFF078
:012CD00022E1
:100C0A00EFD394077480948040037F012212051960
:100C1A00FED394037480948040037F0222EF7044D1
:100C2A00EE700B900001120532F4529352941205A1
:100C3A00196401700B9000011205324293F4529428
:100C4A00120519FE6402700A9000011205324293DD
:100C5A004294EE6403700D900001120532FEF452C4
:100C6A0093EE4294EF64017046120519FE700B90E0
:100C7A000001120532F452915292EE6401700B9007
:100C8A0000011205324291F452921205196402705F
:100C9A000A90000112053242914292120519640328
:100CAA00700D900001120532FEF45291EE4292EF5D
:100CBA0064027046120519FE700B9000011205328B
:100CCA00F452955296EE6401700B900001120532AF
:100CDA004295F452961205196402700A90000112A4
:100CEA000532429542961205196403700D9000016F
:100CFA00120532FEF45295EE4296EF6403704612E4
:100D0A000519FE700B900001120532F452B152B26D
:100D1A00EE6401700B90000112053242B1F452B236
:100D2A001205196402700A90000112053242B1429A
:100D3A00B21205196403700D900001120532FEF417
:100D4A0052B1EE42B2EF64047046120519FE700BFE
:100D5A00900001120532F452B352B4EE6401700BE2
:100D6A0090000112053242B3F452B412051964021A
:100D7A00700A90000112053242B342B41205196496
:100D8A0003700D900001120532FEF452B3EE42B424
:100D9A00EF64057046120519FE700B9000011205EA
:100DAA0032F452C952CAEE6401700B900001120566
:100DBA003242C9F452CA1205196402700A9000013B
:100DCA0012053242C942CA1205196403700D900015
:100DDA0001120532FEF452C9EE42CAEF64067046A9
:100DEA00120519FE700B900001120532F452CB5213
:100DFA00CCEE6401700B90000112053242CBF45222
:100E0A00CC1205196402700A90000112053242CB15
:100E1A0042CC1205196403700D900001120532FECE
:100E2A00F452CBEE42CCEF64077049120519FF7EEB
:100E3A0000700B900001120532F452E152E2EF64A5
:100E4A00014E700B90000112053242E1F452E21297
:100E5A0005196402700A90000112053242E142E269
:100E6A001205196403700D900001120532FFF45245
:070E7A00E1EF42E27F0022DC
:1016E90043BA809000021205326401704290FE8074
:1016F900E04440F090FE82E4F0900003120532903D
:10170900FE817006E0547FF08004E04480F0120509
:1017190019543FFF90FE80E054C04FF0900004122E
:101729000532640190FE8870030217C40217BE9047
:10173900FE80E054BFF090FE84E4F09000051205AD
:1017490032640190FE837006E04440F08004E05466
:10175900BFF0900006120532640190FE837006E026
:101769004420F08004E054DFF09000071205326451
:101779000190FE837006E04410F08004E054EFF01D
:10178900900008120532640190FE837006E0440857
:10179900F08004E054F7F090000912053225E0FFCB
:1017A90090FE85E054014FF090000A120532640161
:1017B90090FE857006E054FEF08004E04401F0904C
:1017C900000B120532FFE5BA54CF4FF5BA9000016C
:1017D90012053290FE807006E0547FF08004E044E8
:0617E90080F053BA7F22DC
:0C2D510090FE82E030E6F9E054BFF02272
:092D7C0090FE817401F0022D515A
:0E2D0D0090FE86EFF090FE817402F0022D51D0
:10000300AE0743BA80122D7C7F4E122D0D120018BD
:05001300AF06122D0DE7
:0900180090FE817403F0022D51E9
:0F2CE10090FE817404F0122D5190FE87E0FF22C7
:0E2D1B0090FE82E4F090FE817405F0022D51CE
:0F2CF00090FE827401F090FE817405F0022D5168
:092D850090FE817406F0022D514C
:102C230043BA80122D7C122D0D120018AF05122D00
:0B2C33000D120018122D8553BA7F22ED
:10296C009003C1EBF0A3EAF0A3E9F012000390038B
:10297C00C1E0FBA3E475F0011205FEA9F0FA120503
:10298C0019FF122D0D1200189003C4E014F070DE24
:07299C00122D8553BA7F22C2
:1000260043BA80122D7CEF04FF122D0D1200181218
:0B0036002CE1122CF0122D8553BA7F34
:01004100229C
:10293300120003122D7C7F28122D0D120018122C69
:10294300E1EF12055F740129F9E43AFA9003C9E053
:1029530064016003122D1B9003C9E014F070DF12B1
:092963002CF0122D8553BA7F22DD
:0300C300022C8785
:072C8700C0D075D000C007AA
:072C8E00AFBA43BA808FBA10
:052C9500D007D0D03291
:1007F00090035BEBF0A3EAF0A3E9F090035AEFF06B
:1008000064016003020A4F90000004F0E4A3F0A327
:10081000F0A3F0A3F0A3F0A3F090035EF090035ECA
:10082000E0FFC39480748094805014740E2FF5827E
:10083000E43401F583E4F090035EE004F080DEE44C
:1008400090035EF090035EE0FFC394807480948018
:100850005014740E2FF582E43400F583E4F0900315
:100860005EE004F080DE90035BE0FBA3E0FAA3E02F
:10087000F990000A120532FD7C00D3940374809431
:100880008040037F0222ED4C700553B7EFC2BC904D
:10089000035BE0FBA3E0FAA3E0F990000A12053243
:1008A0006401700553B7EFD2BC90000A120532FF05
:1008B0007E006402700543B710C2BCEF64034E7043
:1008C0000543B710D2BC120519FD7C00D394C07447
:1008D00080948040037F0222120519FFE598543F5F
:1008E0004FF598ED64C04C6008EF64406003020966
:1008F000D29000021207277F807E8D7D5B7C0012E4
:10090000065090035F120757E4FFFE7D01FC900341
:100910005FE0F8A3E0F9A3E0FAA3E0FBC31206F05E
:1009200040037F022290035FE0F8A3E0F9A3E0FA1E
:10093000A3E0FBC3E49BFFE49AFE740199FDE498F5
:10094000FC90035F12075790035BE0FBA3E0FAA360
:10095000E0F9900001120532FB7A0064017038C2A0
:100960008E538EFE5389BF5389CF438E4090035FD1
:10097000E0FCA3E0FDA3E0FEA3E0FF78081207017E
:100980008F8D90035FA3A3A3E0F58BC2AB5389BF08
:10099000538FFDD28E807AEB64024A7032538EEF11
:1009A000438E01538EF7438E0490035FE0FCA3E077
:1009B000FDA3E0FEA3E0FF78081207018FD69003A5
:1009C0005FA3A3A3E0F5D753AFFB438E1080427F14
:1009D000022290035BE0FBA3E0FAA3E0F912051901
:1009E000FF7E007014900008120532640170054308
:1009F0008E20801D538EDF8018EF64804E70129021
:100A00000008120532640170054387808003538714
:100A10007F90035BE0FBA3E0FAA3E0F990000912EA
:100A2000053264017004D2AC8002C2AC900007129F
:100A3000053264017004D29C8002C29C90000B12AB
:100A4000053254C0FFE5A2543F4FF5A27F0022902B
:100A5000035AE064026003020C079000077402F07E
:100A6000E4A3F0A3F0A3F0A3F0A3F0A3F090035E3F
:100A7000F090035EE0FFC3948074809480501474FF
:100A80008E2FF582E43401F583E4F090035EE004F8
:100A9000F080DEE490035EF090035EE0FFC394809C
:100AA000748094805014748E2FF582E43400F583A2
:100AB000E4F090035EE004F080DE90035BE0FBA3D3
:100AC000E0FAA3E0F9120519FF64C06008EF644082
:100AD0006003020BC290000A120532FD7C00D39421
:100AE000037480948040037F0222ED4C700653B65D
:100AF000FE53B5FE90035BE0FBA3E0FAA3E0F990A0
:100B0000000A1205326401700653B6FE43B5019027
:100B1000000A120532FF7E006402700643B60153DC
:100B2000B5FEEF64034E700643B60143B5011205EE
:100B30001964C07005439A808003539A7F90000225
:100B40001207277F807E8D7D5B7C0012065090030C
:100B50005F120757E4FFFE7D01FC90035FE0F8A3FE
:100B6000E0F9A3E0FAA3E0FBC31206F040037F0222
:100B70002290035FE0F8A3E0F9A3E0FAA3E0FBC34F
:100B8000E49BFFE49AFE740199FDE498FC90035FF6
:100B9000120757538EEF538EF7438E0490035FE096
:100BA000FCA3E0FDA3E0FEA3E0FF78081207018F9D
:100BB000D690035FA3A3A3E0F5D753AFFB438E10FA
:100BC00080037F022290035BE0FBA3E0FAA3E0F93D
:100BD0009000091205326401700543AF0180035390
:100BE000AFFE90000712053264017005439A108031
:100BF00003539AEF90000B1205325401FFE5BA54EB
:090C0000FE4FF5BA7F00227F02CD
:010C090022C8
:102AC300900002E0240EF582E43401F583EFF090E8
:102AD3000002E004F0C39480748094804002E4F028
:0B2AE300900003E0700404F0D2992280
:102C9A00120519FF600C122AC3740129F9E43AFAE1
:032CAA0080EE2297
:03002300021C5A62
:101C5A00C0E0C0F0C083C082C0D075D000C000C050
:101C6A0001C002C003C004C005C006C007309836D0
:101C7A00C298900006E0702E900004E0C39480742D
:101C8A008094804002E4F0900004E0FF04F0740EB7
:101C9A002FF582E43400F583E599F0AF99121BAE73
:101CAA009000057405F0309934C299900002E0FF63
:101CBA00900001E0FE6F6020740E2EF582E434017C
:101CCA00F583E0F599900001E004F0C394807480F4
:101CDA0094804009E4F08005900003E4F0D007D036
:101CEA0006D005D004D003D002D001D000D0D0D085
:081CFA0082D083D0F0D0E0326B
:102A6B00900009E0248EF582E43401F583EFF090B9
:102A7B000009E004F0C39480748094804002E4F079
:0C2A8B0090000AE0700504F0439A02225B
:102CAD00120519FF600C122A6B740129F9E43AFA26
:032CBD0080EE2284
:03004300021B009D
:101B0000C0E0C0F0C083C082C0D075D000C000C0AB
:101B100001C002C003C004C005C006C007E59A307A
:101B2000E037539AFE90000DE0702E90000BE0C35A
:101B30009480748094804002E4F090000BE0FF04F5
:101B4000F0748E2FF582E43400F583E59BF0AF9BB3
:101B5000121BAE90000C7405F0E59A30E135539AF3
:101B6000FD900009E0FF900008E0FE6F6020748E99
:101B70002EF582E43401F583E0F59B900008E00443
:101B8000F0C39480748094804009E4F08005900054
:101B90000AE4F0D007D006D005D004D003D002D09C
:0E1BA00001D000D0D0D082D083D0F0D0E0327F
:102B4200900355EFF04404FD7F40122C237F017E59
:102B520000122C59900355E054FBF0FD7F40122CDB
:082B6200237F017E00022C59C3
:041DA9007D30E4FFA6
:051DAD00900351EFF06E
:101DB200ED54F04408A3F0AF05EFC454F04408A377
:101DC200F07F40120026900354EFF054F0F04408E4
:101DD200FD7F40122C237F017E00122C599003516B
:101DE200E09003547005E044088003E04409FD7F5D
:101DF20040122C237F40120026900354EFF0540F20
:101E0200FFF0900352E04FFD7F40122C237F017EB2
:101E120000122C59900354E0FF900352E04FFF123E
:101E22002B42900354E0FF900353E04FFD7F40129A
:101E32002C237F017E00122C59900354E0FF900363
:071E420053E04FFF022B42A9
:0700BB007D01E4FF021DAD11
:102411007FC87E00122C59121DA97F057E00122C47
:1024210059121DA97F057E00122C59121DA97F0189
:102431007E00122C597D20E4FF121DAD7F017E002C
:10244100122C597D28E4FF121DAD7F401200261287
:102451002B427D28E4FF121DAD7D0CE4FF121DAD62
:102461007D06E4FF121DAD7D01E4FF121DAD7F323B
:052471007E00022C5961
:102B190090034FEDF090034EEFF0700AA3E024808C
:102B2900FDE4FF121DAD90034EE06401700AA3E0BD
:092B390024C0FDE4FF121DAD22D1
:102A3D0090034EEBF0A3EAF0A3E9F090034EE0FB18
:102A4D00A3E0FAA3E0F9120519FD60117F01121D33
:0E2A5D00AD90034FE475F0011205E880DE2213
:102AEE0043BA80122D7C7F88122D0D1200187F2084
:102AFE00122D0D1200187F32122D0D120018122DEC
:0B2B0E008553BA7F7F967E00022C5991
:1021F800900354EBF0A3EAF0A3E9F0A3EDF043BA9F
:1022080080122D7C7F88122D0D1200187FE0122D70
:102218000D120018E4FF122D0D120018122D7C7FEC
:1022280089122D0D120018122CE1900354E0FBA323
:10223800E0FAA3E0F9EF12055F900355E475F001A9
:102248001205E8900357E064016003122D1B900308
:1022580057E014F070D1122CF0122D8553BA7F225A
:0E233E00900359EBF0A3EAF0A3E9F0A3EDF051
:10234C00A374FFF0E4FD90035CE0FFEDC39F5044E9
:10235C00A3E0FF900359E0FBA3E0FAA3E0F98D8220
:10236C00758300120532FEEF6E90035DF07F08EF6F
:10237C00D3940074809480401890035DE030E7079C
:10238C0025E06431F0800790035DE025E0F01F80CC
:0B239C00DE0D80B290035DE0FF7E00CC
:0123A7002213
:102BE000E0900350F07B017A03794EE0900358F0B7
:022BF0007D0264
:102BF20012233E900358E06F60057E007F0122E4BD
:022C0200FEFFD3
:012C040022AD
:1017EF007B017A0379817D061221F8900381E090C5
:1017FF00034EF0900382E090034FF0900383122B7F
:10180F00E0900353EFF0704E90034EE0FEA3E0FD27
:10181F00EDFF900351EEF0A3EFF0EE547FFCE412D6
:10182F000369E4FBFA792F78431201BE7B007AFF3C
:10183F00797F78471202C7E4FBFA793478C2120035
:10184F00CDE4FBFA792078411201BE1203A2900376
:10185F007FEEF0A3EFF0900384E090034EF090033F
:10186F0085E090034FF0900386122BE0900353EF27
:10187F00F0704490034EE0FEA3E0FDEDFF900351A6
:10188F00EEF0A3EFF0EE547FFCE4120369E4FBFAF1
:10189F0079C878421201BE7B007AFF797F784712B0
:1018AF0002C7E4FBFA792078411201BE1203A2901D
:0718BF00037DEEF0A3EFF042
:0118C60022FF
:09232B004603A80102020215019B
:102CD100900371EFF0122AC3900371E0FF022A6B97
:1029A30090037FE0FEA3E0FFE4FCFD90035C1207CD
:1029B300577F01121D0290037DE0FEA3E0FFE4FCBC
:1029C300FD90035C1207577F02121D02A2CCE43371
:0629D300FD7F150228370C
:102C0500122D37EF7004C2CC8002D2CCAD077F15F0
:0D2C1500122837EF640170037F01227F0059
:012C2200228F
:102C3E00EF24EB7010900366E0FCA3E0FD122C0570
:0A2C4E00900368EFF0900368E0FFC8
:012C58002259
:032DAD007F03227F
:092D8E0090035BEFF0A3EDF022CD
:052334004203D7000088
:10218700EFC39430400CEFD39439500674D02FFF2F
:102197008022EFC39441400CEFD394465006EF24BE
:1021A700C9FF8010EFC39461400AEFD394665004CF
:1021B700EF24A9FFEF540FC454F0FFEDC394304050
:1021C7000CEDD39439500674D02DFD801EEDC394C9
:1021D700414008EDD394465002800CEDC394614012
:1021E7000AEDD394665004ED24A9FDED540F4FFF7B
:0121F70022C5
:0B004600900366EBF0A3EAF0A3E9F0E2
:10005100A312076300000000900366E0FBA3E0FA2F
:10006100A3E04A4B7005FFFEFDFC229003691207D5
:100071006300000000900366E0FBA3E475F0011249
:1000810005FEA9F0FA1205196021900369E0FCA3AD
:10009100E0FDA3E0FEA3E02401FFE43EFEE43DFD1C
:1000A100E43CFC90036912075780CA900369E0FCA5
:0900B100A3E0FDA3E0FEA3E0FFC3
:0100BA002223
:0B26FA00900388EBF0A3EAF0A3E9F0E6
:1027050090038EEBF0A3EAF0A3E9F0900388E0FBD9
:10271500A3E0FAA3E04A4B7004FBFAF92290038C7C
:1027250074FFF5F01205FE45F0601690038EE0FB90
:10273500A3E475F0011205FEA9F0FAED12055F801C
:0C274500DC900388E0FBA3E0FAA3E0F9BD
:012751002265
:0B10790090036DEBF0A3EAF0A3E9F098
:10108400900375EBF0A3EAF0A3E9F0900370E0F9A4
:10109400A3E0FAA3E0900378C9F0A3EAF0A3E9F08F
:1010A40090036DE0FBA3E0FAA3E04A4B600CA3E0DD
:1010B400FBA3E0FAA3E04A4B70077B007A007900B7
:1010C40022900378E0FBA3E0FAA3E0F9C003C00296
:1010D400C001900375A3E0FAA3E0F9D3D082D083D2
:1010E400D0E0E99582EA95834033900378A3E0FA4F
:1010F400A3E0F9900373E0FEA3E0FFE92FF9EA3ED1
:10110400FAC003C002C001A3A3E0FAA3E0F9D3D05C
:1011140082D083D0E0E99582EA95834056E4900337
:101124007BF0A3F0900373E0FEA3E0FF90037BE069
:10113400FCA3E0FDC39FEC9E40030211D49003780E
:10114400E0FBA3E0FAA3E0F98D828C83120532FF61
:10115400900375E0FBA3E0FAA3E0F98D828C83EFA2
:1011640012057190037CE004F0700690037BE004A8
:10117400F080B1900373E0FFA3E090037BCFF0A372
:10118400EFF090037BE0FEA3E0FFD39400EE940025
:10119400403E900378E0FBA3E0FAA3E0F9EF24FFDC
:1011A400FFEE34FFFE8F82F583120532FD90037546
:1011B400E0FBA3E0FAA3E0F98F828E83ED120571C0
:1011C40090037CE024FFF090037BE034FFF080B2D6
:0B11D40090036DE0FBA3E0FAA3E0F93C
:0111DF0022ED
:0B1EDF00900391EBF0A3EAF0A3E9F000
:101EEA00900391E0FBA3E0FAA3E04A4B600CA3E065
:101EFA00FBA3E0FAA3E04A4B70077B007A00790063
:101F0A0022900391A3A3E0FF900397E0FBA3E0FADA
:101F1A00A3E0F98032900394E0FBA3E0FAA3E0F98E
:101F2A001205196028900394A3E475F0011205FEC6
:101F3A00A9F0FA120519FF900391E0FBA3E475F0EA
:101F4A00011205FEA9F0FAEF12055F80C89003910D
:101F5A00E0FBA3E0FAA3E0F9E412055F900397E03F
:071F6A00FBA3E0FAA3E0F97C
:011F7100224D
:102114009003AEEBF0A3EAF0A3E9F09003AEE0FB8A
:10212400A3E0FAA3E0F9120519FF60299003B1E0D6
:10213400FBA3E0FAA3E0F91205196019B50716909C
:1021440003AFE475F0011205E89003B2E475F00101
:102154001205E880C69003B1E0FBA3E0FAA3E0F91E
:10216400120519FF3395E0FE9003AEE0FBA3E0FAFD
:10217400A3E0F9120519FD3395E0FCC3ED9FFFECD4
:032184009EFE229A
:1024D9009003CF1207579003CFE0FCA3E0FDA3E0E0
:1024E900FEA3E0FF7818120701EF12055F9003CFF2
:1024F900E0FCA3E0FDA3E0FEA3E0FF7810120701D2
:10250900900001EF1205719003CFE0FCA3E0FDA359
:10251900E0FEA3E0FF7808120701900002EF120520
:10252900719003CFA3A3A3E0FF900003EF0205710D
:0B14980090039AEBF0A3EAF0A3E9F048
:1014A300A312076300000000120519FFE4FCFDFE10
:1014B30090039D12075790039DE0FCA3E0FDA3E07A
:1014C300FEA3E0FF780812071490039D12075790BC
:1014D300039DE0F8A3E0F9A3E0FAA3E0FBC000C09A
:1014E30001C002C00390039AE0FBA3E0FAA3E0F972
:1014F300900001120532FFD003D002D001D000EBDF
:101503004FFFEAFEE9FDE8FC90039D1207579003A5
:101513009DE0FCA3E0FDA3E0FEA3E0FF7808120733
:101523001490039D12075790039DE0F8A3E0F9A3DD
:10153300E0FAA3E0FBC000C001C002C00390039A1D
:10154300E0FBA3E0FAA3E0F9900002120532FFD01A
:1015530003D002D001D000EB4FFFEAFEE9FDE8FC27
:1015630090039D12075790039DE0FCA3E0FDA3E0C9
:10157300FEA3E0FF780812071490039D120757900B
:10158300039DE0F8A3E0F9A3E0FAA3E0FBC000C0E9
:1015930001C002C00390039AE0FBA3E0FAA3E0F9C1
:1015A300900003120532FFD003D002D001D000EB2C
:1015B3004FFFEAFEE9FDE8FC90039D1207579003F5
:0C15C3009DE0FCA3E0FDA3E0FEA3E0FF20
:0115CF0022F9
:0D2539009003B5EBF0A3EAF0A3E9F0AD07C5
:10254600E4FFFE900290E0640170020F22122A97C7
:10255600E4FD122A979003B8E0FD122A979003B97A
:10256600E0FD122A979003B5E0FBA3E0FAA3E0F999
:10257600A3E0FDA3E090036BCDF0A3EDF012227172
:0D258600AB07AA067D037F071223A87F0183
:012593002225
:07283700900369EDF0AC070E
:10283E00E4FFFE900290E0640170020F22AD0412DC
:10284E002A977D01122A97E4FD122A977D01122AFA
:10285E0097900369E07003FD80027D01122A97AB09
:0C286E0007AA067D037F071223A87F0144
:01287A00223B
:021D0200AD072B
:101D0400E4FFFE900290E0640170020F22122A9711
:101D14007D02122A97E4FD122A977D04122A97C0A5
:101D240006C00790035CE0FCA3E0FDA3E0FEA3E093
:101D3400FF7818120701AD07D007D006122A97C002
:101D440006C00790035CE0FCA3E0FDA3E0FEA3E073
:101D5400FF7810120701AD07D007D006122A97C0EA
:101D640006C00790035CE0FCA3E0FDA3E0FEA3E053
:101D7400FF7808120701AD07D007D006122A97C0D2
:101D840006C00790035CE0FCA3A3A3E0FFE4AD0757
:101D9400D007D006122A97AB07AA067D037F071245
:041DA40023A87F01F0
:011DA8002218
:0D2594009003BBEBF0A3EAF0A3E9F0AD0764
:1025A100E4FFFE900290E0640170020F22122A976C
:1025B1007D03122A979003BEE0FD122A979003BF74
:1025C100E0FD122A979003BBE0FBA3E0FAA3E0F938
:1025D100A3E0FDA3E090036BCDF0A3EDF012227117
:0D25E100AB07AA067D037F071223A87F0128
:0125EE0022CA
:0728BA009003D9EDF0AC071B
:1028C100E4FFFE900290E0640170020F22AD041259
:1028D1002A977D04122A97E4FD122A977D01122A74
:1028E100979003D9E0FD122A97AB07AA067D037FD3
:0628F100071223A87F017D
:0128F70022BE
:0211E000AD0759
:1011E200E49003A6F0A3F0900290E0640170037F04
:1011F20001229003A6E0FEA3E0FF122A979003A625
:10120200EEF0A3EFF07D05122A979003A6EEF0A36D
:10121200EFF0E4FD122A979003A6EEF0A3EFF09010
:1012220003A2E0FCA3E0FDA3E0FEA374FFFFE47BC6
:10123200FFFAF9F8C31206F070209003A6E0FEA3AD
:10124200E0FF7D01122A979003A6EEF0A3EFF09043
:1012520003A2A3A3A3E0FD0213229003A2E0FCA336
:10126200E0FDA3A374FFFFFEE47BFF7AFFF9F8C35E
:101272001206F09003A67009E0FEA3E0FF7D028053
:1012820057E0FEA3E0FF7D04122A979003A6EEF03A
:10129200A3EFF0C006C0079003A2E0FCA3E0FDA309
:1012A200E0FEA3E0FF7818120701AD07D007D006D1
:1012B200122A979003A6EEF0A3EFF0C006C00790A3
:1012C20003A2E0FCA3E0FDA3E0FEA3E0FF7810127E
:1012D2000701AD07D007D006122A979003A6EEF0B9
:1012E200A3EFF0C006C0079003A2E0FCA3E0FDA3B9
:1012F200E0FEA3E0FF7808120701AD07D007D00691
:10130200122A979003A6EEF0A3EFF0C006C0079052
:1013120003A2E0FCA3A3A3E0FFE4AD07D007D0063D
:10132200122A979003A6EEF0A3EFF09003A6E0FA3C
:0C133200A3E0FB7D037F071223A87F01CE
:01133E00228C
:0D2D3700900369ECF0A3EDF0120519FF22E6
:0D2D44009003D3ECF0A3EDF0120519FF226F
:0B2D5D009003D5ECF0A3EDF0021498F9
:101BAE0090034DEFF09002FFA3E0FAA3E0AE02FF28
:101BBE00900302A3E0FAA3E0C39FFFEA9EFEEF6448
:101BCE00014E7003021C59900302E0FBA3A3E0F93F
:101BDE00C003C002C0019002FFA3E0FAA3E0F9D354
:101BEE00D082D083D0E0E99582EA9583402390039A
:101BFE0002A3E0FAA3E0AE02FF9002FFA3E0FAA375
:101C0E00E09FFFEA9EFEC3EF9417EE64809480502F
:101C1E003A9002FFA3E0FAA3E0C39002C89582EACD
:101C2E009583400E9002FF7401F0A37402F0A3742A
:101C3E00B1F090034DE0FF9002FFE0FBA3E475F0DE
:0C1C4E00011205FEA9F0FAEF12055F225A
:10287B009003CAEBF0A3EAF0A3E9F0A3ECF0A3ED0D
:01288B00F05C
:10288C00E4FDFCD39003CEE09D9003CDE09C401D75
:10289C009003CAE0FBA3E0FAA3E0F98D828C8312CB
:0D28AC000532FF121BAE0DBD00010C80D6E1
:0128B90022FC
:100E8100E490034EF0A3F0A3F0A3F0C39003D8E0E5
:100E9100941F9003D7E09400502A1229D9D3EF94DC
:100EA1000074809480401D1224769003D7E475F07D
:100EB100011205FEFC749125F0F58274023CF58364
:100EC100EFF080C7C39003D8E094079003D7E09474
:100ED10000500302107890034EE0FEA3E0FFC390A0
:100EE10003D8E09FFD9003D7E09EFCC3ED9407EC8F
:100EF1009400500302102B74912FF58274023EF579
:100F010083E06455601090034FE004F070C89003D3
:100F11004EE004F080C090034EE0FEA3E0FF249277
:100F2100F58274023EF583E064AA601090034FE0FD
:100F310004F070A290034EE004F0809A74932FF5B0
:100F41008274023EF583E0600990034FE0240202BF
:100F5100100690034EE0FCA3E0FD2495F582740297
:100F61003CF583E0900350F0A3E4F074962DF582F4
:100F710074023CF583E02407FFE433FE900351E063
:100F81002FF0900350E03EF0E0FEA3E0FFD3942663
:100F9100EE9400400890034FE02403806890034ED4
:100FA100E0FCA3E0FDC39003D8E09DFD9003D7E0F2
:100FB1009CFCD3EF9DEE9C507190034EE0FEA3E0AC
:100FC1002491F974023EFA7B01900351E024FFFD64
:100FD100900350E034FFFC1227A6AD07900350E0C8
:100FE100FAA3E0FB90034EE0FEA3E0FF2BFBEE3AF9
:100FF100FA74902BF58274023AF583E06D601190DA
:10100100034FE02403F090034EE03400F0020ED7CA
:1010110012133F900350E0FEA3E0FF90034FE02F37
:10102100F090034EE03EF0020ED790034EE0FEA397
:10103100E0FFC39003D8E09FFD9003D7E09EFCF052
:10104100A3EDF0D39400EC9400402C74912FF9742B
:10105100023EFA9003707401F0A3EAF0A3E9F09064
:1010610003D7E0FFA3E0900373CFF0A3EFF07B0180
:071071007A02799112107957
:011078002255
:102B6A009002FF7401F0A37402F0A374B1F0900311
:102B7A00027401F0A37402F0A374B1F0E49002901D
:082B8A00F090030574FFF02236
:062D97009002B0E0FF22F3
:0E2D2900E49002B0F0FBFA7D037F040223A8C1
:062D9D0090028FE0FF220E
:022C7000AD07AE
:102C7200E4FF90028FF0FE122A97EFFB7A007D03A9
:052C82007F050223A8FC
:062DA300900305E0FF2291
:0A2D6800E4FBFA7D037F0E0223A8AE
:1028F8007B2270223A220075676E3136657A626DE6
:102908006271726F38717500222C2276223A220089
:10291800312E302E3000222C226D223A0032007DDA
:0B2928000000000000000000000000A4
:0423390041028E00CF
:082A970090036AEEF0A3EFF0DA
:102A9F0024CEF974023EFA7B01ED12055F90036BB1
:102AAF00E004F0700690036AE004F090036AE0FE21
:032ABF00A3E0FF92
:012AC20022F1
:0922680090035BE0FF7E007BFFA8
:10227100900368EBF0A3EAF0A3E9F0900366EEF0B7
:03228100A3EFF0D8
:1022840024CEF974023EFA7B01C002C001A3E0F936
:10229400A3E0FAA3E0900370C9F0A3EAF0A3E9F085
:1022A40090036BE0FFA3E0900373CFF0A3EFF0D0B3
:1022B40001D00212107990036BE0FEA3E0FF9003BB
:0F22C40067E02FF0900366E03EF0E0FEA3E0FF3E
:0122D30022E8
:1027A60090036CEBF0A3EAF0A3E9F0A3ECF0A3ED41
:0127B600F032
:1027B700E4A3F0FFFED3900370E09F90036FE09EC9
:1027C700402190036CE0FBA3E475F0011205FEA91C
:1027D700F0FA120519FD900371E02DF00FBF00010B
:0827E7000E80D2900371E0FFA7
:0127EF0022C7
:1027520090036CEBF0A3EAF0A3E9F0A3ECF0A3ED95
:10276200F090036CE0FBA3E0FAA3E04A4B6034A3D1
:10277200E07002A3E0602C90036F74FFF5F0120585
:10278200FE45F0601E90036CE0FBA3E0FAA3E0F9C3
:10279200120519FF122CD190036DE475F001120598
:0427A200E880D422D5
:0823A80090036AEAF0A3EBF0D8
:1023B0009002C87455F0A374AAF0A3EDF0A3EFF057
:1023C00090036AE0FCA3E0FDEC9002CCF0EDA3F0FA
:1023D00090036BE02407F090036AE03400F07B0187
:1023E0007A0279C8A3E024FFFD90036AE034FFFC81
:1023F0001227A6AE0790036AE0FCA3E0FD24C7F510
:102400008274023CF583EFF07B017A0279C80227DF
:012410005279
:102BB900E4FF90028EE0700DFEFD122A9790028EBE
:102BC9007401F080077E007D01122A97EFFB7A00DD
:072BD9007D03E4FF0223A8C5
:1015D000E490035BF0785C7C037D017BFF7A2979E2
:1015E00029FE7F0A1204F37BFF7A2879F81200465D
:1015F00090036BEEF0A3EFF07A2879F8122268904E
:10160000035BEFF07BFF7A2879FF12004690036BB3
:10161000EEF0A3EFF07A2879FF12226890035BEFD7
:10162000F07BFF7A29791012004690036BEEF0A34D
:10163000EFF090035BE0FF7E007BFF7A29791012C8
:10164000227190035BEFF07BFF7A29791812004634
:1016500090036BEEF0A3EFF090035BE0FF7E007B66
:10166000FF7A29791812227190035BEFF07BFF7AE1
:1016700029791E12004690036BEEF0A3EFF0900361
:101680005BE0FF7E007BFF7A29791E1222719003B6
:101690005BEFF07BFF7A29792512004690036BEE11
:1016A000F0A3EFF090035BE0FF7E007BFF7A2979E7
:1016B0002512227190035BEFF07BFF7A29792712C4
:1016C000004690036BEEF0A3EFF090035BE0FF7E2B
:1016D000007BFF7A29792712227190035BEFF0FBE0
:0916E0007A007D037F010223A8BA
:0A2D7200E4FBFA7D037F020223A8B0
:052A0E00900362EFF0EF
:102A1300122DADE4FEEEC39F501D75F002EEA4240B
:102A2300A8F582E5F03403F583E0FD900362E0FC52
:092A3300ED6C60030E80DEAF06BD
:012A3C002277
:0B208E0090035BEBF0A3EAF0A3E9F085
:1020990012051990035EF0FD9000011205329003BC
:1020A9005FF0900002120532900360F0A3E4F09013
:1020B9000003120532FF900361E02FF0900360E006
:1020C9003400F0AF05122A0E75F002EFA424A9F529
:1020D90082E5F03403F583E0FF90035FE06F60036E
:1020E9007F002290035EE0FF90035BE0FBA3E0FA30
:1020F900A3E02404F9E43AFA900360E0FDA3E09038
:0A2109000366CDF0A3EDF0122C3EAA
:0121130022A9
:08133F00900352EEF0A3EFF061
:10134700900352E0FEA3E02494F58274023EF583F5
:10135700E0FF120794137B00137E011381021384AD
:101367000313A30413A80513AF06146F0814720E12
:1013770000001497022BB90215D0022D7290035268
:10138700E0FEA3E02497F58274023EF583E0900324
:1013970005F0E4FBFA7D037F030223A89002B080E7
:1013A7000390028F7401F022900352E0FCA3E0FD4A
:1013B7002495F58274023CF583E0FE74962DF58240
:1013C70074023CF583E0FDEDFF900359EEF0A3EFC7
:1013D700F0E4900357F0A3F0900359E0FEA3E0FF79
:1013E700C3900358E09F900357E09E400302149771
:1013F700E0FEA3E0FF900352E0FCA3E0FD2FFBEC2F
:101407003EFA74992BF58274023AF583E0900354FF
:10141700F0A3E4F0749A2BF58274023AF583E0FFA7
:10142700900355E02FF0900354E03400F074972DAB
:10143700F974023CFA7B01900357E0FEA3E029F917
:10144700EA3EFA12208E900356EFF0900355E024FF
:1014570004FF900354E03400FE900358E02FF0900F
:101467000357E03EF00213DF0229A3900352E0FE88
:10147700A3E0FF2497F58274023EF583E0FD74989C
:101487002FF58274023EF583E0FEAF05FD122D8E27
:011497002232
:1029D900900302E0FBA3E0FAA3E0F9C003C002C040
:1029E900019002FFE0FBA3E0FAA3E0F9D082D083D3
:1029F900D0E06B7008E965827003EA658360037F44
:052A090001227F002204
:102476009002FFE0FBA3E0FAA3E0F9C003C002C0AC
:1024860001A3E0FBA3E0FAA3E0F9D082D083D0E079
:102496006B7008E965827003EA6583603590030214
:1024A600A3E0FAA3E0C39002C89582EA9583400EA2
:1024B6009003027401F0A37402F0A374B1F09003C8
:1024C60002E0FBA3E475F0011205FEA9F0FA12057D
:0224D60019FFEC
:0124D80022E1
:1000C60002040EE86480F8E933E83360110460F056
:1000D600ED33EC337009E8FCE9FDEAFEEBFF2204A0
:1000E60060DED3EB9FEA9EE99DE8C2E78CF0C2F79B
:1000F60095F0400CE8CCF8E9CDF9EACEFAEBCFFB67
:100106001203D985D0F05804700320D5B3E80470E3
:10011600075002B2D502041892D5EC0460F7E4CC7D
:10012600C0E0C398F8603B94186008400DD0E0FB2F
:100136000203F0E4FBFAC9FC8028E830E406E4C9CF
:10014600FBE4CAFCE830E305E4C9CACBFCE8540783
:100156006010F8C3E913F9EA13FAEB13FBEC13FC8E
:10016600D8F130F52FC3E49CFCEF9BFFEE9AFEED31
:1001760099FDD0E0FBEF4E4D4C701222DB030204DA
:1001860015EC2CFCEF33FFEE33FEED33FDED30E7DF
:10019600EB0203F0EF2BFFEE3AFEED39FDD0E0FB6C
:1001A60050130BBB0003020418ED13FDEE13FEEF14
:0801B60013FFEC13FC0203F03F
:1001BE00EC4D6011E8497017ED33EC3304600DE43B
:1001CE00FCFFFEFD22E933E8330470F802040E1240
:1001DE0003D958046009E4CC248150062850090242
:1001EE000418284003020415C0E0EB4A7044B9809D
:1001FE0006D0E0FB020404EF4E701CBD8008EBFF3E
:10020E00EAFEE9FD80EBE98DF0A4FEE5F00202A71F
:10021E00E9CDF9EAFEEBFFEF89F0A4FCE5F0CE891B
:10022E00F0A42EFFE435F0CD89F0A42DFEE435F0D8
:10023E008067EF4E7005BD80D780C3EF8BF0A4AC06
:10024E00F0EE8BF0A42CFCE435F0F8EF8AF0A42C41
:10025E00E5F038FCE433CB8DF0A42CFCE5F03BF854
:10026E00EE8AF0A42CFCE5F038F8E433CF89F0A444
:10027E002CFCE5F038CF3400CE89F0A42FFFE5F04A
:10028E003EFEE433C98DF0A42EFEE5F039CD8AF0A2
:10029E00A42FFFE5F03EFEE43DFD33D0E0FB50071A
:1002AE000BBB000F020418EC2CFCEF33FFEE33FEF9
:0602BE00ED33FD0203F028
:1002C400020418EC5D046005E85904700302040E8E
:1002D4001203D9580460F6EC4860F2EC7004FDFE99
:1002E400FF22C860DB2481C85009C398600250060D
:1002F4000204159850CAF582E9294B4A7005AB826D
:1003040002040475F0007C1A7880C3EF9BEE9AED2A
:1003140099400DC3EF9BFFEE9AFEED99FDE842F084
:10032400DC23ACF0D0E0FFD0E0FED0E0FDAB8220D7
:10033400E7101BEB60BAEC2CFCEF33FFEE33FEED61
:1003440033FD0203F0E803F830E705C0F075F00070
:10035400EF2FFFEE33FEED33FD40B830E7C280AA45
:1003640075F020800E75F010800575F0087D007E14
:10037400007F003392D530D5031206E2EC334010EF
:10038400EF33FFEE33FEED33FDEC33FCD5F0ED221D
:0E039400E5F0247EA2D513CC92E7CDCEFF2259
:1003A200EDD2E7CD33EC3392D524814006E4FFFE53
:1003B200FDFC22FCE4CFCECDCC24E0501174FF80B2
:1003C200EDC3CC13CCCD13CDCE13CECF13CF04704F
:0703D200F030D5DE0206E267
:1003D900E9D2E7C933E833F892D5EDD2E7CD33EC6A
:0703E90033FC5002B2D522E3
:1003F000EC30E7100FBF000C0EBE00080DBD00046E
:100400000BEB6014A2D5EB13FCED92E7FD2274FF19
:10041000FCFDFEFF22E480F8A2D574FF13FC7D8072
:03042000E480EF86
:03000000022002D9
:0C200200787FE4F6D8FD758120022049AB
:10042300E709F608DFFA8046E709F208DFFA803EBB
:1004330088828C83E709F0A3DFFA8032E309F608A8
:10044300DFFA8078E309F208DFFA807088828C8310
:10045300E309F0A3DFFA806489828A83E0A3F608C4
:10046300DFFA805889828A83E0A3F208DFFA804C9E
:1004730080D280FA80C680D4806980F28033801075
:1004830080A680EA809A80A880DA80E280CA8033DE
:1004930089828A83ECFAE493A3C8C582C8CCC58356
:1004A300CCF0A3C8C582C8CCC583CCDFE9DEE78026
:1004B3000D89828A83E493A3F608DFF9ECFAA9F0A5
:1004C300EDFB2289828A83ECFAE0A3C8C582C8CCFB
:1004D300C583CCF0A3C8C582C8CCC583CCDFEADE14
:1004E300E880DB89828A83E493A3F208DFF980CC76
:1004F30088F0EF60010E4E60C388F0ED2402B4046F
:100503000050B9F582EB2402B4040050AF23234515
:06051300822390047373C3
:10051900BB010689828A83E0225002E722BBFE02E0
:09052900E32289828A83E4932213
:10053200BB010CE58229F582E5833AF583E022507E
:1005420006E92582F8E622BBFE06E92582F8E222C8
:0D055200E58229F582E5833AF583E49322E2
:10055F00BB010689828A83F0225002F722BBFE017B
:02056F00F32275
:10057100F8BB010DE58229F582E5833AF583E8F0C0
:10058100225006E92582C8F622BBFE05E92582C86C
:02059100F22254
:10059300BC000BBE0029EF8DF084FFADF022E4CC4C
:1005A300F875F008EF2FFFEE33FEEC33FCEE9DEC15
:1005B300984005FCEE9DFE0FD5F0E9E4CEFD22ED5B
:1005C300F8F5F0EE8420D21CFEADF075F008EF2FA5
:1005D300FFED33FD4007985006D5F0F222C398FD96
:0505E3000FD5F0EA2233
:1005E800C5F0F8A3E028F0C5F0F8E582158270029E
:0605F8001583E038F0223B
:1005FE00A3F8E0C5F025F0F0E582158270021583B0
:06060E00E0C838F0E8220C
:1006140075F008758200EF2FFFEE33FECD33CDCC9D
:1006240033CCC58233C5829BED9AEC99E582984020
:100634000CF582EE9BFEED9AFDEC99FC0FD5F0D6FD
:10064400E4CEFBE4CDFAE4CCF9A88222B800C1B927
:100654000059BA002DEC8BF084CFCECDFCE5F0CB65
:10066400F97818EF2FFFEE33FEED33FDEC33FCEB9E
:1006740033FB10D703994004EB99FB0FD8E5E4F959
:10068400FA227818EF2FFFEE33FEED33FDEC33FC46
:10069400C933C910D7059BE99A4007EC9BFCE99A3A
:1006A400F90FD8E0E4C9FAE4CCFB2275F010EF2F7F
:1006B400FFEE33FEED33FDCC33CCC833C810D7077F
:1006C4009BEC9AE899400AED9BFDEC9AFCE899F8BA
:0E06D4000FD5F0DAE4CDFBE4CCFAE4C8F9224D
:0E06E200C3E49FFFE49EFEE49DFDE49CFC2229
:1006F000EB9FF5F0EA9E42F0E99D42F0E89C45F060
:0107000022D6
:10070100E8600FECC313FCED13FDEE13FEEF13FFD6
:03071100D8F122FA
:10071400E8600FEFC333FFEE33FEED33FDEC33FC43
:03072400D8F122E7
:10072700BB010DE58229F582E5833AF5830207C708
:100737005007E92582F80207BABBFE07E92582F8C8
:100747000207D3E58229F582E5833AF5830207E0BC
:0C075700ECF0A3EDF0A3EEF0A3EFF02215
:10076300A8828583F0D083D08212077A12077A1287
:10077300077A12077AE473E493A3C583C5F0C583AC
:10078300C8C582C8F0A3C583C5F0C583C8C582C8E0
:010793002243
:10079400D083D082F8E4937012740193700DA3A3F4
:1007A40093F8740193F5828883E473740293686008
:0607B400EFA3A3A380DF08
:10200E0002199CE493A3F8E493A34003F68001F233
:10201E0008DFF48029E493A3F85407240CC8C333D3
:10202E00C4540F4420C8834004F456800146F6DFA2
:10203E00E4800B01020408102040809022D4E47E3C
:10204E00019360BCA3FF543F30E509541FFEE49397
:10205E00A360010ECF54C025E060A840B8E493A35E
:10206E00FAE493A3F8E493A3C8C582C8CAC583CA89
:10207E00F0A3C8C582C8CAC583CADFE9DEE780BE41
:01233D00009F
:0D07BA00E6FB08E6F908E6FA08E6CBF822AF
:0C07C700E0F8A3E0F9A3E0FAA3E0FB22B5
:0D07D300E2FB08E2F908E2FA08E2CBF822A6
:1007E000E493F8740193F9740293FA740393FB226F
:00000001FF
